{
  "contractName": "Interoperability",
  "abi": [
    {
      "inputs": [
        {
          "name": "_owner",
          "type": "address"
        },
        {
          "name": "_TST1",
          "type": "address"
        },
        {
          "name": "_TST2",
          "type": "address"
        },
        {
          "name": "_conversionFactor",
          "type": "uint256"
        }
      ],
      "payable": false,
      "stateMutability": "nonpayable",
      "type": "constructor",
      "signature": "constructor"
    },
    {
      "anonymous": false,
      "inputs": [
        {
          "indexed": false,
          "name": "sender",
          "type": "address"
        },
        {
          "indexed": false,
          "name": "receiver",
          "type": "address"
        },
        {
          "indexed": false,
          "name": "tokenAmount",
          "type": "uint256"
        }
      ],
      "name": "TST2Withdrawn",
      "type": "event",
      "signature": "0xe94c885b87d99f5663303ccdb1b2cb2a7c5f72434b806af661467727d3bdeeff"
    },
    {
      "constant": false,
      "inputs": [
        {
          "name": "toAddress",
          "type": "address"
        },
        {
          "name": "tokenAmount",
          "type": "uint256"
        }
      ],
      "name": "interoperableTransfer",
      "outputs": [],
      "payable": false,
      "stateMutability": "nonpayable",
      "type": "function",
      "signature": "0xe1dd0784"
    },
    {
      "constant": false,
      "inputs": [
        {
          "name": "toAddress",
          "type": "address"
        },
        {
          "name": "tokenAmount",
          "type": "uint256"
        }
      ],
      "name": "withdrawTST2",
      "outputs": [],
      "payable": false,
      "stateMutability": "nonpayable",
      "type": "function",
      "signature": "0xe910c306"
    }
  ],
  "bytecode": "0x608060405234801561001057600080fd5b5060405160808061095b8339810180604052608081101561003057600080fd5b8101908080519060200190929190805190602001909291908051906020019092919080519060200190929190505050836000806101000a81548173ffffffffffffffffffffffffffffffffffffffff021916908373ffffffffffffffffffffffffffffffffffffffff16021790555082600160006101000a81548173ffffffffffffffffffffffffffffffffffffffff021916908373ffffffffffffffffffffffffffffffffffffffff16021790555081600260006101000a81548173ffffffffffffffffffffffffffffffffffffffff021916908373ffffffffffffffffffffffffffffffffffffffff16021790555080600381905550505050506108208061013b6000396000f3fe60806040526004361061004c576000357c0100000000000000000000000000000000000000000000000000000000900463ffffffff168063e1dd078414610051578063e910c306146100ac575b600080fd5b34801561005d57600080fd5b506100aa6004803603604081101561007457600080fd5b81019080803573ffffffffffffffffffffffffffffffffffffffff16906020019092919080359060200190929190505050610107565b005b3480156100b857600080fd5b50610105600480360360408110156100cf57600080fd5b81019080803573ffffffffffffffffffffffffffffffffffffffff169060200190929190803590602001909291905050506104e5565b005b60003090506000600160009054906101000a900473ffffffffffffffffffffffffffffffffffffffff1673ffffffffffffffffffffffffffffffffffffffff166370a08231836040518263ffffffff167c0100000000000000000000000000000000000000000000000000000000028152600401808273ffffffffffffffffffffffffffffffffffffffff1673ffffffffffffffffffffffffffffffffffffffff16815260200191505060206040518083038186803b1580156101c957600080fd5b505afa1580156101dd573d6000803e3d6000fd5b505050506040513d60208110156101f357600080fd5b81019080805190602001909291905050509050600160009054906101000a900473ffffffffffffffffffffffffffffffffffffffff1673ffffffffffffffffffffffffffffffffffffffff166323b872dd3330866040518463ffffffff167c0100000000000000000000000000000000000000000000000000000000028152600401808473ffffffffffffffffffffffffffffffffffffffff1673ffffffffffffffffffffffffffffffffffffffff1681526020018373ffffffffffffffffffffffffffffffffffffffff1673ffffffffffffffffffffffffffffffffffffffff1681526020018281526020019350505050602060405180830381600087803b1580156102ff57600080fd5b505af1158015610313573d6000803e3d6000fd5b505050506040513d602081101561032957600080fd5b8101908080519060200190929190505050506000600160009054906101000a900473ffffffffffffffffffffffffffffffffffffffff1673ffffffffffffffffffffffffffffffffffffffff166370a08231846040518263ffffffff167c0100000000000000000000000000000000000000000000000000000000028152600401808273ffffffffffffffffffffffffffffffffffffffff1673ffffffffffffffffffffffffffffffffffffffff16815260200191505060206040518083038186803b1580156103f857600080fd5b505afa15801561040c573d6000803e3d6000fd5b505050506040513d602081101561042257600080fd5b81019080805190602001909291905050509050818103841415156104d4576040517f08c379a000000000000000000000000000000000000000000000000000000000815260040180806020018281038252602a8152602001807f42616c616e63657320646f6e2774206164642075702c20736f6d657468696e6781526020017f2069732077726f6e672e0000000000000000000000000000000000000000000081525060400191505060405180910390fd5b6104de858561067c565b5050505050565b6000809054906101000a900473ffffffffffffffffffffffffffffffffffffffff1673ffffffffffffffffffffffffffffffffffffffff163373ffffffffffffffffffffffffffffffffffffffff161415156105cf576040517f08c379a00000000000000000000000000000000000000000000000000000000081526004018080602001828103825260238152602001807f53656e646572206973206e6f7420746865206f776e6572206f6620636f6e747281526020017f616374000000000000000000000000000000000000000000000000000000000081525060400191505060405180910390fd5b6105d9828261067c565b7fe94c885b87d99f5663303ccdb1b2cb2a7c5f72434b806af661467727d3bdeeff338383604051808473ffffffffffffffffffffffffffffffffffffffff1673ffffffffffffffffffffffffffffffffffffffff1681526020018373ffffffffffffffffffffffffffffffffffffffff1673ffffffffffffffffffffffffffffffffffffffff168152602001828152602001935050505060405180910390a15050565b600260009054906101000a900473ffffffffffffffffffffffffffffffffffffffff1673ffffffffffffffffffffffffffffffffffffffff1663a9059cbb83836040518363ffffffff167c0100000000000000000000000000000000000000000000000000000000028152600401808373ffffffffffffffffffffffffffffffffffffffff1673ffffffffffffffffffffffffffffffffffffffff16815260200182815260200192505050602060405180830381600087803b15801561074157600080fd5b505af1158015610755573d6000803e3d6000fd5b505050506040513d602081101561076b57600080fd5b810190808051906020019092919050505015156107f0576040517f08c379a00000000000000000000000000000000000000000000000000000000081526004018080602001828103825260158152602001807f546f6b656e207472616e73666572206661696c6564000000000000000000000081525060200191505060405180910390fd5b505056fea165627a7a723058205249d3ef047fac5c916d2a913c9d1a1d8fb15df0ea34bd421951b14f87aa79500029",
  "source": "pragma solidity ^0.5.0;\n\nimport \"./Token1.sol\";\nimport \"./Token2.sol\";\n\n// This contract can take TST1 and convert them to TST2 and send.\ncontract Interoperability {\n    address owner;\n    Token1 TST1;\n    Token2 TST2;\n    uint256 conversionFactor; // one to one conversion means conversionFactor is 100.\n    \n    modifier onlyOwner {\n        require(msg.sender == owner, \"Sender is not the owner of contract\");\n        _;\n    }\n    \n    event TST2Withdrawn(address sender, address receiver, uint256 tokenAmount);\n    \n    constructor(address _owner, address _TST1, address _TST2, uint256 _conversionFactor) public {\n        owner = _owner;\n        TST1 = Token1(_TST1);\n        TST2 = Token2(_TST2);\n        conversionFactor = _conversionFactor;\n    }\n    \n    function interoperableTransfer(address toAddress, uint256 tokenAmount) public {\n        address thisContract = address(this);\n        uint256 prevBalance = TST1.balanceOf(thisContract);\n        TST1.transferFrom(msg.sender, address(this), tokenAmount);\n        uint256 currentBalance = TST1.balanceOf(thisContract);\n        require(tokenAmount == currentBalance - prevBalance, \"Balances don't add up, something is wrong.\");\n        _transfer(toAddress, tokenAmount);\n    }\n    \n    function withdrawTST2 (address toAddress, uint256 tokenAmount) public onlyOwner {\n        _transfer(toAddress, tokenAmount);\n        emit TST2Withdrawn(msg.sender, toAddress, tokenAmount);\n    }\n\n    function _transfer(address to, uint256 value) internal {\n        require(TST2.transfer(to, value), \"Token transfer failed\");\n    }\n}",
  "sourcePath": "/Users/prateekyammanuru/work/interviews/belfrics/contracts/Interoperability.sol",
  "compiler": {
    "name": "solc",
    "version": "0.5.0+commit.1d4f565a.Emscripten.clang"
  },
  "schemaVersion": "3.0.1",
  "updatedAt": "2019-02-13T08:53:31.765Z",
  "devdoc": {
    "methods": {}
  },
  "userdoc": {
    "methods": {}
  }
}